{
  "contractName": "Tickets",
  "abi": [
    {
      "inputs": [],
      "payable": false,
      "stateMutability": "nonpayable",
      "type": "constructor"
    },
    {
      "constant": true,
      "inputs": [],
      "name": "owner",
      "outputs": [
        {
          "internalType": "address",
          "name": "",
          "type": "address"
        }
      ],
      "payable": false,
      "stateMutability": "view",
      "type": "function"
    },
    {
      "constant": true,
      "inputs": [
        {
          "internalType": "uint256",
          "name": "",
          "type": "uint256"
        }
      ],
      "name": "tickets",
      "outputs": [
        {
          "internalType": "uint256",
          "name": "price",
          "type": "uint256"
        },
        {
          "internalType": "address",
          "name": "owner",
          "type": "address"
        }
      ],
      "payable": false,
      "stateMutability": "view",
      "type": "function"
    },
    {
      "constant": false,
      "inputs": [
        {
          "internalType": "uint256",
          "name": "_index",
          "type": "uint256"
        }
      ],
      "name": "buyTicket",
      "outputs": [],
      "payable": true,
      "stateMutability": "payable",
      "type": "function"
    }
  ],
  "bytecode": "0x6080604052600080546001600160a01b0319163317905534801561002257600080fd5b5060005b600c81101561009157670de0b6b3a7640000600182600c811061004557fe5b60020201556000600182600c811061005957fe5b6002020160010160006101000a8154816001600160a01b0302191690836001600160a01b031602179055508080600101915050610026565b506101db806100a16000396000f3fe6080604052600436106100345760003560e01c806350b447121461003957806367dd74ca146100845780638da5cb5b146100a3575b600080fd5b34801561004557600080fd5b506100636004803603602081101561005c57600080fd5b50356100d4565b604080519283526001600160a01b0390911660208301528051918290030190f35b6100a16004803603602081101561009a57600080fd5b50356100fc565b005b3480156100af57600080fd5b506100b8610197565b604080516001600160a01b039092168252519081900360200190f35b600181600c81106100e157fe5b6002020180546001909101549091506001600160a01b031682565b600c8110801561010a575060015b61011357600080fd5b6000600182600c811061012257fe5b60020201600101546001600160a01b03161461013d57600080fd5b600181600c811061014a57fe5b600202015434101561015b57600080fd5b33600182600c811061016957fe5b6002020160010160006101000a8154816001600160a01b0302191690836001600160a01b0316021790555050565b6000546001600160a01b03168156fea265627a7a72315820f0a19ccc8405b3805bf89771af27affb3170959838f5892c0684e733b5157bb564736f6c63430005100032",
  "source": "pragma solidity >=0.4.22 <0.7.0;\r\n\r\ncontract Tickets {\r\n  address public owner = msg.sender;\r\n  uint256 constant TICKETS = 12;\r\n\r\n  struct Ticket {\r\n    uint256 price;\r\n    address owner;\r\n  }\r\n\r\n  Ticket[TICKETS] public tickets;\r\n\r\n  constructor() public {\r\n    for (uint256 i = 0; i < TICKETS; i++) {\r\n      tickets[i].price = 1e18;\r\n      tickets[i].owner = address(0x0);\r\n    }\r\n  }\r\n\r\n  function buyTicket(uint256 _index) external payable {\r\n    require(_index < TICKETS && _index >= 0);\r\n    require(tickets[_index].owner == address(0x0));\r\n    require(msg.value >= tickets[_index].price);\r\n    tickets[_index].owner = msg.sender;\r\n  }\r\n}",
  "sourcePath": "C:\\Users\\I526514\\Desktop\\ticket-app\\contracts\\Tickets.sol",
  "compiler": {
    "name": "solc",
    "version": "0.5.16+commit.9c3226ce.Emscripten.clang"
  },
  "schemaVersion": "3.4.11",
  "updatedAt": "2023-01-05T11:51:46.535Z",
  "networkType": "ethereum",
  "devdoc": {
    "methods": {}
  },
  "userdoc": {
    "methods": {}
  }
}